:1000000086C0000094C0000092C0000090C00000B4
:100010008EC000008CC000008AC0000088C00000B4
:1000200086C0000084C0000082C0000080C00000C4
:100030007EC000007CC000007AC0000078C00000D4
:1000400076C0000074C0000072C0000070C00000E4
:100050006EC000006CC000006AC0000068C00000F4
:1000600066C0000064C0000062C0000060C0000004
:100070005EC000005CC000005AC0000058C0000014
:1000800056C0000054C0000052C000000763423652
:10009000B79BD8A71A39685618AEBAAB558C1D3C19
:1000A000B7CC5763BD6DEDFD753EF6177231BF00DD
:1000B0000000803F08000000BE922449123EABAA17
:1000C000AA2ABECDCCCC4C3E00000080BEABAAAA72
:1000D000AA3E00000000BF000000803F00000000BA
:1000E00000084178D3BB4387D1133D190E3CC3BDF3
:1000F0004282AD2B3E68EC8276BED98FE1A93E4CA0
:1001000080EFFFBE01C4FF7F3F000000000011240C
:100110001FBECFEFD0E4DEBFCDBF21E0A0E0B1E055
:1001200001C01D92AC30B207E1F780D0F2C368CFB6
:1001300011B8ECE7F0E080EE80838081807F8083DF
:10014000EAE7F0E08EE88083808180648083089510
:10015000EAE7F0E08081806480830895EAE7F0E0D8
:10016000808184FFFDCF809179000895ECE7F0E075
:100170008081807E8083808183608083E9DFEECF11
:1001800008958FE493EC0197F1F700C00000089503
:10019000682F70E080E090E0CCD02FE539E24BECA6
:1001A0005CEBC9D16CD026E636E64AE252E4C3D114
:1001B00092D0862F0895ECE7F0E08081807E8083E6
:1001C00080818083C5DFCADF80930101E1CF08957C
:1001D000ECE7F0E08081807E808380818160808395
:1001E000B7DFBCDF80930201D3CF0895682F70E0A2
:1001F00080E090E09CD02CE53FE842EA5FEBFED146
:1002000020E030E442E755E496D165D0862F08958A
:10021000ECE7F0E08081807E808380818260808353
:1002200097DF9CDF80930001E1CF089510D084B167
:100230008FEF84B913D08093040114D08093090107
:1002400015D080930A0106D080930801F3CF99DF7F
:100250006FCF08958BDF80930B010895ACDF8093FF
:1002600007010895B5DF809306010895D1DF8093DB
:100270000501089519F40EF097C0E6C09BC0CAD0DE
:10028000C8F39638C0F707F80F92E8942BE33AEAE0
:1002900048EB5FE75ED10F920F920F924DB75EB7BA
:1002A0000F9216D1ECE8F0E088D04F915F91EF917A
:1002B000FF91E595EE1FFF1F49F0FE57E0684427C8
:1002C000EE0F441FFA95E1F74195550BCDD00F90F5
:1002D00007FEC1C008959ED088F09F5790F0B92FB7
:1002E0009927B751A0F0D1F0660F771F881F991F8B
:1002F0001AF0BA95C9F712C0B13081F0A5D0B1E0BB
:100300000895A2C0672F782F8827B85F39F0B93FCA
:10031000CCF3869577956795B395D9F73EF490958C
:100320008095709561957F4F8F4F9F4F0895E8940A
:1003300009C097FB3EF490958095709561957F4F2D
:100340008F4F9F4F9923A9F0F92F96E9BB279395DB
:10035000F695879577956795B795F111F8CFFAF4EB
:10036000BB0F11F460FF1BC06F5F7F4F8F4F9F4F1C
:1003700016C0882311F096E911C0772321F09EE87A
:10038000872F762F05C0662371F096E8862F70E0E0
:1003900060E02AF09A95660F771F881FDAF7880FBA
:1003A0009695879597F9089597F99F6780E870E08B
:1003B00060E008959FEF80EC0895DF93CF931F9343
:1003C0000F93FF92EF92DF927B018C01689405C03E
:1003D000DA2EEF01BCD0FE01E894A591259135916C
:1003E00045915591AEF3EF0167D1FE019701A80148
:1003F000DA9479F7DF90EF90FF900F911F91CF91F2
:10040000DF91089557FD9058440F551F59F05F3FF5
:1004100071F04795880F97FB991F61F09F3F79F026
:1004200087950895121613061406551FF2CF4695A8
:10043000F1DF08C0161617061806991FF1CF86952A
:100440007105610508940895E894BB27662777270E
:10045000CB0197F908959B01AC0160E070E080E862
:100460009FE37DC1A1CFE3C1D5DFE8F39923D9F3A1
:10047000940F511DBBF39150504094F059F08823D4
:1004800032F0660F771F881F91505040C1F79E3F92
:10049000510544F7880F911D9695879597F9089512
:1004A0005F3FACF0983E9CF0BB27869577956795AB
:1004B000B79508F4B1609395C1F7BB0F58F711F4E5
:1004C00060FFE8CF6F5F7F4F8F4F9F4FE3CFBDCF70
:1004D000FA01DC01AA0FBB1F9B01AC01BF5728F436
:1004E00022273327442750781FC0B75188F4AB2FF9
:1004F0000024469537952795011CA395D2F300203B
:1005000069F0220F331F441FB395DAF30DD0C2C038
:1005100061307105A0E88A07B94630F49B01AC014F
:100520006627772788279078309621F020833183BB
:100530004283538308950BD096C187D128F08CD184
:1005400018F0952309F030CF35CF11247ECF5ADF34
:10055000A0F3959FD1F3950F50E0551F629FF001D6
:10056000729FBB27F00DB11D639FAA27F00DB11D2F
:10057000AA1F649F6627B00DA11D661F829F2227B8
:10058000B00DA11D621F739FB00DA11D621F839F3F
:10059000A00D611D221F749F3327A00D611D231F15
:1005A000849F600D211D822F762F6A2F11249F5763
:1005B00050408AF0E1F088234AF0EE0FFF1FBB1F86
:1005C000661F771F881F91505040A9F79E3F510525
:1005D00070F0EACE3ACF5F3FECF3983EDCF38695BD
:1005E00077956795B795F795E7959F5FC1F7FE2BD0
:1005F000880F911D9695879597F90895FA01EE0F4A
:10060000FF1F30962105310599F16115710561F4DF
:100610008038BFE39B0749F168949038810561F009
:100620008038BFEF9B0741F0992342F5FF3FE1057A
:100630003105210511F1E8940894E795D901AA2321
:1006400029F4AB2FBE2FF85FD0F310C0FF5F70F41A
:10065000A695E0F7F73950F019F0FF3A38F49F7794
:100660009F930CD00F9007FC905808953EF0A2CEB7
:1006700060E070E080E89FE308954FE79F775F9325
:100680004F933F932F9305D12F913F914F915F91BE
:1006900052DFF5CD5058BB27AA270ED0E4C0D5D0E5
:1006A00030F0DAD020F031F49F3F11F41EF482CE06
:1006B0000EF4E095E7FB78CEE92FA4DE80F3BA17BD
:1006C000620773078407950718F071F49EF5BCCE96
:1006D0000EF4E0950B2EBA2FA02D0B01B90190015D
:1006E0000C01CA01A0011124FF27591B99F0593FA1
:1006F00050F4503E68F11A16F040A22F232F342FE9
:100700004427585FF3CF469537952795A795F04036
:100710005395C9F77EF41F16BA0B620B730B840B4B
:10072000BAF09150A1F0FF0FBB1F661F771F881F03
:10073000C2F70EC0BA0F621F731F841F48F487955B
:1007400077956795B795F7959E3F08F0B3CF93954A
:10075000880F08F09927EE0F9795879508950CD08C
:1007600082C07AD040F071D030F021F45F3F19F0B0
:100770001BCE51116ACE1ECE45DE98F39923C9F3E4
:100780005523B1F3951B550BBB27AA276217730797
:10079000840738F09F5F5F4F220F331F441FAA1F4B
:1007A000A9F333D00E2E3AF0E0E830D0915050400B
:1007B000E695001CCAF729D0FE2F27D0660F771FB9
:1007C000881FBB1F261737074807AB07B0E809F09B
:1007D000BB0B802DBF01FF2793585F4F2AF09E3F30
:1007E000510568F0E1CD31CE5F3FECF3983EDCF38C
:1007F000869577956795B795F7959F5FC9F7880FA9
:10080000911D9695879597F90895E1E0660F771FFA
:10081000881FBB1F621773078407BA0720F0621B8B
:10082000730B840BBA0BEE1F88F7E09508959F3F7A
:1008300031F0915020F4879577956795B795880F9B
:10084000911D9695879597F9089500240A94161698
:10085000170618060906089500240A9412161306AE
:10086000140605060895092E0394000C11F488233C
:1008700052F0BB0F40F4BF2B11F460FF04C06F5F58
:100880007F4F8F4F9F4F08950EF0D1CF93CD689437
:100890008BCDC0DDC8F39923D1F3C6F3DF93CF939B
:1008A0001F930F93FF92C92FDD2788232AF02197EA
:1008B000660F771F881FDAF720E030E040E85FEB33
:1008C0009FE3883920F0803E30F021968F77E3DE79
:1008D000E4EBF0E003C0DFDEE1EEF0E06EDD8B0183
:1008E000BE01EC01FB2E6F5771097595771F880BC0
:1008F000990B1FDD28E132E741E35FE328DEAF2DEE
:100900009801AE01FF900F911F91CF91DF91D4DE3E
:06091000AACFF894FFCF0E
:00000001FF
