:1000000045C0000053C0000051C000004FC00000B8
:1000100070C000004BC0000049C0000047C0000095
:1000200045C0000043C0000041C000003FC00000C8
:100030003DC000003BC0000039C0000037C00000D8
:1000400035C0000033C0000031C000002FC00000E8
:100050002DC000002BC0000029C0000027C00000F8
:1000600025C0000023C0000021C000001FC0000008
:100070001DC000001BC0000019C0000017C0000018
:1000800015C0000013C0000011C0000011241FBEE5
:10009000CFEFD0E4DEBFCDBF21E0A0E0B1E001C0F2
:1000A0001D92A230B207E1F71CD044C0A9CF109234
:1000B00001011092000115BEE9E6F0E01082808196
:1000C000836080831DBAE89AE09AE8E6F0E0108247
:1000D000808181608083EBE6F0E0808180688083AE
:1000E0000895F894E4DF8FEF84B911B87894789488
:1000F000FECF1F920F920FB60F9211248F939F93F2
:10010000F894079B0EC08091000190910101019627
:100110009093010180930001809100019091010171
:1001200085B9E09A78949F918F910F900FBE0F90B0
:080130001F901895F894FFCF11
:00000001FF
